:060000000A128A112028FB
:100008008B1C090003138312013087068B1003131E
:040018008312090046
:100040008B01D0308B000313831675308F000313A0
:100050008312860103138316FF308600031783166D
:10006000091203138316FF309500031383128701CF
:1000700003138316870103178316003088000313C8
:1000800083128501031383168501031383124B200A
:10009000013085064528FF30A100FF30A000A00BED
:0800A0004F28A10B4D280800B8
:04400E00C400FF3FAC
:00000001FF
